{
  "_format": "hh-sol-artifact-1",
  "contractName": "LoveCoin",
  "sourceName": "contracts/LoveCoin.sol",
  "abi": [
    {
      "inputs": [],
      "stateMutability": "nonpayable",
      "type": "constructor"
    },
    {
      "inputs": [
        {
          "internalType": "address",
          "name": "spender",
          "type": "address"
        },
        {
          "internalType": "uint256",
          "name": "allowance",
          "type": "uint256"
        },
        {
          "internalType": "uint256",
          "name": "needed",
          "type": "uint256"
        }
      ],
      "name": "ERC20InsufficientAllowance",
      "type": "error"
    },
    {
      "inputs": [
        {
          "internalType": "address",
          "name": "sender",
          "type": "address"
        },
        {
          "internalType": "uint256",
          "name": "balance",
          "type": "uint256"
        },
        {
          "internalType": "uint256",
          "name": "needed",
          "type": "uint256"
        }
      ],
      "name": "ERC20InsufficientBalance",
      "type": "error"
    },
    {
      "inputs": [
        {
          "internalType": "address",
          "name": "approver",
          "type": "address"
        }
      ],
      "name": "ERC20InvalidApprover",
      "type": "error"
    },
    {
      "inputs": [
        {
          "internalType": "address",
          "name": "receiver",
          "type": "address"
        }
      ],
      "name": "ERC20InvalidReceiver",
      "type": "error"
    },
    {
      "inputs": [
        {
          "internalType": "address",
          "name": "sender",
          "type": "address"
        }
      ],
      "name": "ERC20InvalidSender",
      "type": "error"
    },
    {
      "inputs": [
        {
          "internalType": "address",
          "name": "spender",
          "type": "address"
        }
      ],
      "name": "ERC20InvalidSpender",
      "type": "error"
    },
    {
      "anonymous": false,
      "inputs": [
        {
          "indexed": true,
          "internalType": "address",
          "name": "owner",
          "type": "address"
        },
        {
          "indexed": true,
          "internalType": "address",
          "name": "spender",
          "type": "address"
        },
        {
          "indexed": false,
          "internalType": "uint256",
          "name": "value",
          "type": "uint256"
        }
      ],
      "name": "Approval",
      "type": "event"
    },
    {
      "anonymous": false,
      "inputs": [
        {
          "indexed": true,
          "internalType": "address",
          "name": "from",
          "type": "address"
        },
        {
          "indexed": true,
          "internalType": "address",
          "name": "to",
          "type": "address"
        },
        {
          "indexed": false,
          "internalType": "uint256",
          "name": "value",
          "type": "uint256"
        }
      ],
      "name": "Transfer",
      "type": "event"
    },
    {
      "inputs": [
        {
          "internalType": "address",
          "name": "owner",
          "type": "address"
        },
        {
          "internalType": "address",
          "name": "spender",
          "type": "address"
        }
      ],
      "name": "allowance",
      "outputs": [
        {
          "internalType": "uint256",
          "name": "",
          "type": "uint256"
        }
      ],
      "stateMutability": "view",
      "type": "function"
    },
    {
      "inputs": [
        {
          "internalType": "address",
          "name": "spender",
          "type": "address"
        },
        {
          "internalType": "uint256",
          "name": "value",
          "type": "uint256"
        }
      ],
      "name": "approve",
      "outputs": [
        {
          "internalType": "bool",
          "name": "",
          "type": "bool"
        }
      ],
      "stateMutability": "nonpayable",
      "type": "function"
    },
    {
      "inputs": [
        {
          "internalType": "address",
          "name": "account",
          "type": "address"
        }
      ],
      "name": "balanceOf",
      "outputs": [
        {
          "internalType": "uint256",
          "name": "",
          "type": "uint256"
        }
      ],
      "stateMutability": "view",
      "type": "function"
    },
    {
      "inputs": [],
      "name": "decimals",
      "outputs": [
        {
          "internalType": "uint8",
          "name": "",
          "type": "uint8"
        }
      ],
      "stateMutability": "view",
      "type": "function"
    },
    {
      "inputs": [],
      "name": "mint",
      "outputs": [],
      "stateMutability": "nonpayable",
      "type": "function"
    },
    {
      "inputs": [],
      "name": "name",
      "outputs": [
        {
          "internalType": "string",
          "name": "",
          "type": "string"
        }
      ],
      "stateMutability": "view",
      "type": "function"
    },
    {
      "inputs": [
        {
          "internalType": "uint256",
          "name": "_newAmount",
          "type": "uint256"
        }
      ],
      "name": "setMintAmount",
      "outputs": [],
      "stateMutability": "nonpayable",
      "type": "function"
    },
    {
      "inputs": [
        {
          "internalType": "uint64",
          "name": "_newDelayInSeconds",
          "type": "uint64"
        }
      ],
      "name": "setMintDelay",
      "outputs": [],
      "stateMutability": "nonpayable",
      "type": "function"
    },
    {
      "inputs": [],
      "name": "symbol",
      "outputs": [
        {
          "internalType": "string",
          "name": "",
          "type": "string"
        }
      ],
      "stateMutability": "view",
      "type": "function"
    },
    {
      "inputs": [],
      "name": "totalSupply",
      "outputs": [
        {
          "internalType": "uint256",
          "name": "",
          "type": "uint256"
        }
      ],
      "stateMutability": "view",
      "type": "function"
    },
    {
      "inputs": [
        {
          "internalType": "address",
          "name": "to",
          "type": "address"
        },
        {
          "internalType": "uint256",
          "name": "value",
          "type": "uint256"
        }
      ],
      "name": "transfer",
      "outputs": [
        {
          "internalType": "bool",
          "name": "",
          "type": "bool"
        }
      ],
      "stateMutability": "nonpayable",
      "type": "function"
    },
    {
      "inputs": [
        {
          "internalType": "address",
          "name": "from",
          "type": "address"
        },
        {
          "internalType": "address",
          "name": "to",
          "type": "address"
        },
        {
          "internalType": "uint256",
          "name": "value",
          "type": "uint256"
        }
      ],
      "name": "transferFrom",
      "outputs": [
        {
          "internalType": "bool",
          "name": "",
          "type": "bool"
        }
      ],
      "stateMutability": "nonpayable",
      "type": "function"
    }
  ],
  "bytecode": "0x608060405260006006556202a300600760006101000a81548167ffffffffffffffff021916908367ffffffffffffffff16021790555034801561004157600080fd5b506040518060400160405280600881526020017f4c6f7665436f696e0000000000000000000000000000000000000000000000008152506040518060400160405280600481526020017f4c4f56450000000000000000000000000000000000000000000000000000000081525081600390816100bd919061062c565b5080600490816100cd919061062c565b50505033600560006101000a81548173ffffffffffffffffffffffffffffffffffffffff021916908373ffffffffffffffffffffffffffffffffffffffff16021790555061012a33683635c9adc5dea0000061012f60201b60201c565b61081e565b600073ffffffffffffffffffffffffffffffffffffffff168273ffffffffffffffffffffffffffffffffffffffff16036101a15760006040517fec442f05000000000000000000000000000000000000000000000000000000008152600401610198919061073f565b60405180910390fd5b6101b3600083836101b760201b60201c565b5050565b600073ffffffffffffffffffffffffffffffffffffffff168373ffffffffffffffffffffffffffffffffffffffff16036102095780600260008282546101fd9190610789565b925050819055506102dc565b60008060008573ffffffffffffffffffffffffffffffffffffffff1673ffffffffffffffffffffffffffffffffffffffff16815260200190815260200160002054905081811015610295578381836040517fe450d38c00000000000000000000000000000000000000000000000000000000815260040161028c939291906107cc565b60405180910390fd5b8181036000808673ffffffffffffffffffffffffffffffffffffffff1673ffffffffffffffffffffffffffffffffffffffff16815260200190815260200160002081905550505b600073ffffffffffffffffffffffffffffffffffffffff168273ffffffffffffffffffffffffffffffffffffffff16036103255780600260008282540392505081905550610372565b806000808473ffffffffffffffffffffffffffffffffffffffff1673ffffffffffffffffffffffffffffffffffffffff168152602001908152602001600020600082825401925050819055505b8173ffffffffffffffffffffffffffffffffffffffff168373ffffffffffffffffffffffffffffffffffffffff167fddf252ad1be2c89b69c2b068fc378daa952ba7f163c4a11628f55a4df523b3ef836040516103cf9190610803565b60405180910390a3505050565b600081519050919050565b7f4e487b7100000000000000000000000000000000000000000000000000000000600052604160045260246000fd5b7f4e487b7100000000000000000000000000000000000000000000000000000000600052602260045260246000fd5b6000600282049050600182168061045d57607f821691505b6020821081036104705761046f610416565b5b50919050565b60008190508160005260206000209050919050565b60006020601f8301049050919050565b600082821b905092915050565b6000600883026104d87fffffffffffffffffffffffffffffffffffffffffffffffffffffffffffffffff8261049b565b6104e2868361049b565b95508019841693508086168417925050509392505050565b6000819050919050565b6000819050919050565b600061052961052461051f846104fa565b610504565b6104fa565b9050919050565b6000819050919050565b6105438361050e565b61055761054f82610530565b8484546104a8565b825550505050565b600090565b61056c61055f565b61057781848461053a565b505050565b5b8181101561059b57610590600082610564565b60018101905061057d565b5050565b601f8211156105e0576105b181610476565b6105ba8461048b565b810160208510156105c9578190505b6105dd6105d58561048b565b83018261057c565b50505b505050565b600082821c905092915050565b6000610603600019846008026105e5565b1980831691505092915050565b600061061c83836105f2565b9150826002028217905092915050565b610635826103dc565b67ffffffffffffffff81111561064e5761064d6103e7565b5b6106588254610445565b61066382828561059f565b600060209050601f8311600181146106965760008415610684578287015190505b61068e8582610610565b8655506106f6565b601f1984166106a486610476565b60005b828110156106cc578489015182556001820191506020850194506020810190506106a7565b868310156106e957848901516106e5601f8916826105f2565b8355505b6001600288020188555050505b505050505050565b600073ffffffffffffffffffffffffffffffffffffffff82169050919050565b6000610729826106fe565b9050919050565b6107398161071e565b82525050565b60006020820190506107546000830184610730565b92915050565b7f4e487b7100000000000000000000000000000000000000000000000000000000600052601160045260246000fd5b6000610794826104fa565b915061079f836104fa565b92508282019050808211156107b7576107b661075a565b5b92915050565b6107c6816104fa565b82525050565b60006060820190506107e16000830186610730565b6107ee60208301856107bd565b6107fb60408301846107bd565b949350505050565b600060208201905061081860008301846107bd565b92915050565b6114608061082d6000396000f3fe608060405234801561001057600080fd5b50600436106100b45760003560e01c80634c19c661116100715780634c19c6611461017d57806370a082311461019957806395d89b41146101c9578063a9059cbb146101e7578063c7cd997f14610217578063dd62ed3e14610233576100b4565b806306fdde03146100b9578063095ea7b3146100d75780631249c58b1461010757806318160ddd1461011157806323b872dd1461012f578063313ce5671461015f575b600080fd5b6100c1610263565b6040516100ce9190610e6a565b60405180910390f35b6100f160048036038101906100ec9190610f25565b6102f5565b6040516100fe9190610f80565b60405180910390f35b61010f610318565b005b61011961045b565b6040516101269190610faa565b60405180910390f35b61014960048036038101906101449190610fc5565b610465565b6040516101569190610f80565b60405180910390f35b610167610494565b6040516101749190611034565b60405180910390f35b6101976004803603810190610192919061108f565b61049d565b005b6101b360048036038101906101ae91906110bc565b610559565b6040516101c09190610faa565b60405180910390f35b6101d16105a1565b6040516101de9190610e6a565b60405180910390f35b61020160048036038101906101fc9190610f25565b610633565b60405161020e9190610f80565b60405180910390f35b610231600480360381019061022c91906110e9565b610656565b005b61024d60048036038101906102489190611116565b610733565b60405161025a9190610faa565b60405180910390f35b60606003805461027290611185565b80601f016020809104026020016040519081016040528092919081815260200182805461029e90611185565b80156102eb5780601f106102c0576101008083540402835291602001916102eb565b820191906000526020600020905b8154815290600101906020018083116102ce57829003601f168201915b5050505050905090565b6000806103006107ba565b905061030d8185856107c2565b600191505092915050565b60006006541161035d576040517f08c379a000000000000000000000000000000000000000000000000000000000815260040161035490611202565b60405180910390fd5b600860003373ffffffffffffffffffffffffffffffffffffffff1673ffffffffffffffffffffffffffffffffffffffff1681526020019081526020016000205442116103de576040517f08c379a00000000000000000000000000000000000000000000000000000000081526004016103d59061126e565b60405180910390fd5b6103ea336006546107d4565b600760009054906101000a900467ffffffffffffffff1667ffffffffffffffff164261041691906112bd565b600860003373ffffffffffffffffffffffffffffffffffffffff1673ffffffffffffffffffffffffffffffffffffffff16815260200190815260200160002081905550565b6000600254905090565b6000806104706107ba565b905061047d858285610856565b6104888585856108ea565b60019150509392505050565b60006012905090565b3373ffffffffffffffffffffffffffffffffffffffff16600560009054906101000a900473ffffffffffffffffffffffffffffffffffffffff1673ffffffffffffffffffffffffffffffffffffffff161461052d576040517f08c379a00000000000000000000000000000000000000000000000000000000081526004016105249061133d565b60405180910390fd5b80600760006101000a81548167ffffffffffffffff021916908367ffffffffffffffff16021790555050565b60008060008373ffffffffffffffffffffffffffffffffffffffff1673ffffffffffffffffffffffffffffffffffffffff168152602001908152602001600020549050919050565b6060600480546105b090611185565b80601f01602080910402602001604051908101604052809291908181526020018280546105dc90611185565b80156106295780601f106105fe57610100808354040283529160200191610629565b820191906000526020600020905b81548152906001019060200180831161060c57829003601f168201915b5050505050905090565b60008061063e6107ba565b905061064b8185856108ea565b600191505092915050565b3373ffffffffffffffffffffffffffffffffffffffff16600560009054906101000a900473ffffffffffffffffffffffffffffffffffffffff1673ffffffffffffffffffffffffffffffffffffffff16146106e6576040517f08c379a00000000000000000000000000000000000000000000000000000000081526004016106dd9061133d565b60405180910390fd5b60008111610729576040517f08c379a0000000000000000000000000000000000000000000000000000000008152600401610720906113a9565b60405180910390fd5b8060068190555050565b6000600160008473ffffffffffffffffffffffffffffffffffffffff1673ffffffffffffffffffffffffffffffffffffffff16815260200190815260200160002060008373ffffffffffffffffffffffffffffffffffffffff1673ffffffffffffffffffffffffffffffffffffffff16815260200190815260200160002054905092915050565b600033905090565b6107cf83838360016109de565b505050565b600073ffffffffffffffffffffffffffffffffffffffff168273ffffffffffffffffffffffffffffffffffffffff16036108465760006040517fec442f0500000000000000000000000000000000000000000000000000000000815260040161083d91906113d8565b60405180910390fd5b61085260008383610bb5565b5050565b60006108628484610733565b90507fffffffffffffffffffffffffffffffffffffffffffffffffffffffffffffffff81146108e457818110156108d4578281836040517ffb8f41b20000000000000000000000000000000000000000000000000000000081526004016108cb939291906113f3565b60405180910390fd5b6108e3848484840360006109de565b5b50505050565b600073ffffffffffffffffffffffffffffffffffffffff168373ffffffffffffffffffffffffffffffffffffffff160361095c5760006040517f96c6fd1e00000000000000000000000000000000000000000000000000000000815260040161095391906113d8565b60405180910390fd5b600073ffffffffffffffffffffffffffffffffffffffff168273ffffffffffffffffffffffffffffffffffffffff16036109ce5760006040517fec442f050000000000000000000000000000000000000000000000000000000081526004016109c591906113d8565b60405180910390fd5b6109d9838383610bb5565b505050565b600073ffffffffffffffffffffffffffffffffffffffff168473ffffffffffffffffffffffffffffffffffffffff1603610a505760006040517fe602df05000000000000000000000000000000000000000000000000000000008152600401610a4791906113d8565b60405180910390fd5b600073ffffffffffffffffffffffffffffffffffffffff168373ffffffffffffffffffffffffffffffffffffffff1603610ac25760006040517f94280d62000000000000000000000000000000000000000000000000000000008152600401610ab991906113d8565b60405180910390fd5b81600160008673ffffffffffffffffffffffffffffffffffffffff1673ffffffffffffffffffffffffffffffffffffffff16815260200190815260200160002060008573ffffffffffffffffffffffffffffffffffffffff1673ffffffffffffffffffffffffffffffffffffffff168152602001908152602001600020819055508015610baf578273ffffffffffffffffffffffffffffffffffffffff168473ffffffffffffffffffffffffffffffffffffffff167f8c5be1e5ebec7d5bd14f71427d1e84f3dd0314c0f7b2291e5b200ac8c7c3b92584604051610ba69190610faa565b60405180910390a35b50505050565b600073ffffffffffffffffffffffffffffffffffffffff168373ffffffffffffffffffffffffffffffffffffffff1603610c07578060026000828254610bfb91906112bd565b92505081905550610cda565b60008060008573ffffffffffffffffffffffffffffffffffffffff1673ffffffffffffffffffffffffffffffffffffffff16815260200190815260200160002054905081811015610c93578381836040517fe450d38c000000000000000000000000000000000000000000000000000000008152600401610c8a939291906113f3565b60405180910390fd5b8181036000808673ffffffffffffffffffffffffffffffffffffffff1673ffffffffffffffffffffffffffffffffffffffff16815260200190815260200160002081905550505b600073ffffffffffffffffffffffffffffffffffffffff168273ffffffffffffffffffffffffffffffffffffffff1603610d235780600260008282540392505081905550610d70565b806000808473ffffffffffffffffffffffffffffffffffffffff1673ffffffffffffffffffffffffffffffffffffffff168152602001908152602001600020600082825401925050819055505b8173ffffffffffffffffffffffffffffffffffffffff168373ffffffffffffffffffffffffffffffffffffffff167fddf252ad1be2c89b69c2b068fc378daa952ba7f163c4a11628f55a4df523b3ef83604051610dcd9190610faa565b60405180910390a3505050565b600081519050919050565b600082825260208201905092915050565b60005b83811015610e14578082015181840152602081019050610df9565b60008484015250505050565b6000601f19601f8301169050919050565b6000610e3c82610dda565b610e468185610de5565b9350610e56818560208601610df6565b610e5f81610e20565b840191505092915050565b60006020820190508181036000830152610e848184610e31565b905092915050565b600080fd5b600073ffffffffffffffffffffffffffffffffffffffff82169050919050565b6000610ebc82610e91565b9050919050565b610ecc81610eb1565b8114610ed757600080fd5b50565b600081359050610ee981610ec3565b92915050565b6000819050919050565b610f0281610eef565b8114610f0d57600080fd5b50565b600081359050610f1f81610ef9565b92915050565b60008060408385031215610f3c57610f3b610e8c565b5b6000610f4a85828601610eda565b9250506020610f5b85828601610f10565b9150509250929050565b60008115159050919050565b610f7a81610f65565b82525050565b6000602082019050610f956000830184610f71565b92915050565b610fa481610eef565b82525050565b6000602082019050610fbf6000830184610f9b565b92915050565b600080600060608486031215610fde57610fdd610e8c565b5b6000610fec86828701610eda565b9350506020610ffd86828701610eda565b925050604061100e86828701610f10565b9150509250925092565b600060ff82169050919050565b61102e81611018565b82525050565b60006020820190506110496000830184611025565b92915050565b600067ffffffffffffffff82169050919050565b61106c8161104f565b811461107757600080fd5b50565b60008135905061108981611063565b92915050565b6000602082840312156110a5576110a4610e8c565b5b60006110b38482850161107a565b91505092915050565b6000602082840312156110d2576110d1610e8c565b5b60006110e084828501610eda565b91505092915050565b6000602082840312156110ff576110fe610e8c565b5b600061110d84828501610f10565b91505092915050565b6000806040838503121561112d5761112c610e8c565b5b600061113b85828601610eda565b925050602061114c85828601610eda565b9150509250929050565b7f4e487b7100000000000000000000000000000000000000000000000000000000600052602260045260246000fd5b6000600282049050600182168061119d57607f821691505b6020821081036111b0576111af611156565b5b50919050565b7f4d696e74696e67206973206e6f7420656e61626c656400000000000000000000600082015250565b60006111ec601683610de5565b91506111f7826111b6565b602082019050919050565b6000602082019050818103600083015261121b816111df565b9050919050565b7f596f752063616e2774206d696e7420747769636520696e206120726f77000000600082015250565b6000611258601d83610de5565b915061126382611222565b602082019050919050565b600060208201905081810360008301526112878161124b565b9050919050565b7f4e487b7100000000000000000000000000000000000000000000000000000000600052601160045260246000fd5b60006112c882610eef565b91506112d383610eef565b92508282019050808211156112eb576112ea61128e565b5b92915050565b7f596f7520646f206e6f742068617665207065726d697373696f6e000000000000600082015250565b6000611327601a83610de5565b9150611332826112f1565b602082019050919050565b600060208201905081810360008301526113568161131a565b9050919050565b7f56616c7565206d757374206772656174686572207468656e207a65726f000000600082015250565b6000611393601d83610de5565b915061139e8261135d565b602082019050919050565b600060208201905081810360008301526113c281611386565b9050919050565b6113d281610eb1565b82525050565b60006020820190506113ed60008301846113c9565b92915050565b600060608201905061140860008301866113c9565b6114156020830185610f9b565b6114226040830184610f9b565b94935050505056fea2646970667358221220000ab276c951202a72d3666cc4978371df7ff0a81279dc24a22c4b8bad9e079b64736f6c634300081b0033",
  "linkReferences": {},
  "deployedLinkReferences": {}
}